:100000000C942A000C943C000C943C000C943C0092
:100010000C943C000C943C000C943C000C943C0070
:100020000C943C000C943C000C943C000C943C0060
:100030000C943C000C943C000C943C000C943C0050
:100040000C943C000C943C000C943C000C943E003E
:100050000C943C0011241FBECFE5D4E0DEBFCDBF21
:1000600010E0A0E6B0E001C01D92A436B107E1F7B0
:100070000E9455000C94E4000C9400001F920F9213
:100080000FB60F9211248F939F93809160009091EF
:100090006100019690936100809360009F918F9121
:1000A0000F900FBE0F901F901895A198A79AAF9A26
:1000B000A09AA89A8DE083BF89B7826089BFD59A3C
:1000C000BC988E98969A8D9A809162009091630068
:1000D00083609093630080936200789480916200C3
:1000E0009091630080FD0FC0B4990BC080916200B5
:1000F0009091630081609093630080936200959873
:10010000EDCF959AEBCF809162009091630081FDD5
:1001100041C0B49B11C01092610010926000DD9A42
:10012000AF9AA8988091620090916300826090934A
:10013000630080936200D2CF80916200909163004F
:1001400082FD13C0999902C0AF98C8CFAF9A809131
:1001500062009091630084609093630080936200DA
:100160001092610010926000B9CF9999B7CF809139
:1001700060009091610023EC8135920708F4AECFC6
:1001800080916200909163008B7F909363008093D5
:100190006200A4CF809160009091610023E0893ECD
:1001A000920758F0DD98A89A1092610010926000B2
:1001B000859B02C0959801C0959A86998FCF109221
:0C01C0006300109262008ACFF894FFCF19
:00000001FF
